:0E0000000C9446000C9400000C9400000C942C
:10000E0000000C9400000C9400000C9400000C9462
:10001E0000000C9400000C9400000C9400000C9452
:10002E0000000C9400000C9400000C9400000C9442
:10003E0000000C9400000C9400000C9400000C9432
:10004E0000000C940000202048656C6C6F20776FC8
:10005E00726C64202020000001002D4E414E00499C
:10006E004E46000080C000000000010060026600E5
:10007E000200640272000400040074000000F89490
:10008E00EE27ECBBF1E0FBBFEBBFE5BFF8E1F1BD46
:10009E00E1BD8DE0A2E0BB27ED938A95E9F780E004
:1000AE0098E0A0E6ED930197E9F7E8E7F0E0859197
:1000BE009591009761F0A591B59105901590BF01AE
:1000CE00F00105900D920197E1F7FB01F0CFEFE5FE
:1000DE00EDBFE8E0EEBFC0E6D2E00C947600A0E102
:1000EE000E94EE00A4E5B0E00E94DA00F8CFFFCF48
:1000FE00AA931A931981107F14FD02C0C49801C0EF
:10010E00C49A15FD02C0C59801C0C59A16FD02C05D
:10011E00C69801C0C69A17FD02C0C79801C0C79AFB
:10012E000E941D0119811F7010FD02C0C49801C0EC
:10013E00C49A11FD02C0C59801C0C59A12FD02C035
:10014E00C69801C0C69A13FD02C0C79801C0C79ACF
:10015E000E941D0118810CC0AA93AB98E881F0E0B3
:10016E00EC59FD4FE081A981AE0FC2DF5980488066
:10017E0022960895AA93AB9A5394751430F455248D
:10018E004424E0E0EA93A0E0E7DFA881B1DF4CC0B1
:10019E00AB98A2E0ADDFACE0ABDFA1E0A9DFE0E021
:1001AE004E2E5E2E0895BA93AA931A93AB9AE981B6
:1001BE00FA813196E983FA833197E4911E2FE0306C
:1001CE0019F0A12FD7DFF3CF188123960895AA93A4
:1001DE00A39A8F9A8E9ABC9ABD9ABE9ABF9A9698F7
:1001EE00AB9A97987880E881E058E0936602E881B0
:1001FE00E054E09367020E9427010E9427010E94AB
:10020E0027010E942E01A0E20E943201A8E20E9464
:10021E003201A4E00E943201A5E80E943201A6E05C
:10022E0067DFB6DF0E942E0121960895969AA1E00F
:10023E00B0E00E9435019698A1E0B0E00C94350133
:10024E00AAE0B0E00E943501A0E30C947F00AAE082
:10025E00B0E00C9435010E947F00F9CF109639F072
:10026E0080ED97E00197F1F7A8951197C9F70895DA
:00000001FF
